:020000000328D3
:10000600831686011F308500013083128600063074
:10001600CB001330CC00AD30CD00CD0B1028CC0B6F
:100026001028CB0B10280000000086010630CB00FC
:100036001330CC00AD30CD00CD0B1F28CC0B1F28C4
:10004600CB0B1F2800000000033086000630CB00D3
:100056001330CC00AD30CD00CD0B2F28CC0B2F2884
:10006600CB0B2F2800000000073086000630CB009F
:100076001330CC00AD30CD00CD0B3F28CC0B3F2844
:10008600CB0B3F28000000000F3086000630CB0067
:100096001330CC00AD30CD00CD0B4F28CC0B4F2804
:1000A600CB0B4F28000000001F3086000630CB0027
:1000B6001330CC00AD30CD00CD0B5F28CC0B5F28C4
:1000C600CB0B5F28000000003F3086000630CB00D7
:1000D6001330CC00AD30CD00CD0B6F28CC0B6F2884
:1000E600CB0B6F28000000007F3086000630CB0067
:1000F6001330CC00AD30CD00CD0B7F28CC0B7F2844
:10010600CB0B7F2800000000FF3086000630CB00B6
:100116001330CC00AD30CD00CD0B8F28CC0B8F2803
:10012600CB0B8F280000000086010630CB00133071
:10013600CC00AD30CD00CD0B9E28CC0B9E28CB0B32
:0A0146009E28000000000728A728EB
:02400E00FA3F77
:00000001FF
